:02000000AB282B
:0E0006008312031321088A00200882000800DC
:10001400710DF80DF90D7408F8027508031C750FBD
:10002400F902F00DF10D0F30FC00710DF80DF90D12
:100034007408701C2328F8027508031C750FF90254
:100044002828F80775080318750FF907F00DF10D46
:10005400FC0B1728701834287408F807750803185F
:08006400750FF9070000080008
:10006C00831203137408003A031D45287508003ADF
:10007C00031D4528FF30F0007F30F1009E288312CD
:10008C000313FD01F901F801710870040319003420
:10009C0071087506FA00FA1BFD09FB01F51F5B28B8
:1000AC00F409F509F40A0319F50AF11F6228F0099D
:1000BC00F109F00A0319F10A71087504FA00FA1B28
:1000CC0077280A207B188A28FD1F0034F009F109D3
:1000DC00F00A0319F10AF809F909F80A0319F90ADF
:1000EC000034F51F8628F11B82287108F90070086E
:1000FC00F800F101F0016A28F101F001F00A003476
:10010C00F109F009FB0A6728F80A0319F90A7408BF
:10011C007802031D6A2875087902031D6A28F90103
:10012C00F801F00A0319F10AF11F6A280000FF34E4
:02013C000800B9
:10013E0003208A110A128000840AA00A0319A10A58
:08014E00F003031D9F280800C7
:100156003F3083120313AA000630AB005B30AC00BD
:100166004F30AD006630AE006D30AF007D30B00070
:100176000730B1007F30B2006F30B300B401B50173
:10018600B601B701B801B901831686018701FF30B0
:100196008312860087012A0886008030273AF000FD
:1001A600803035067002031DDA2834080F3C031828
:1001B600DE28B401B5013408B8003508B9000A30A4
:1001C600F4000030F5003408F0003508F100362060
:1001D6007808F0007908F1007008A8007108A900F5
:1001E6000A30F4000030F5003808F0003908F10054
:1001F60036207008B8007108B9000A30F4000030E3
:10020600F50036207808F0007908F1007008A6009D
:100216007108A7000A30F4000030F5003808F00035
:100226003908F10036207008B8007108B9000A30A4
:10023600F4000030F50036207808F0007908F10067
:100246007008A4007108A5000A30F4000030F5001B
:100256003808F0003908F10036207008A20071084D
:10026600A300B601B70180303706F0008030700277
:10027600031D3F29013036020318892987112808F2
:100286002A3E8400000886000D30FC00FB30FD008D
:10029600FD0B4B29FC0B4B290000000087150711AD
:1002A60026082A3E8400000886000D30FC00FB303C
:1002B600FD00FD0B5C29FC0B5C2900000000071506
:1002C600871024082A3E8400000886000D30FC00B2
:1002D600FB30FD00FD0B6D29FC0B6D2900000000B5
:1002E6008714071022082A3E8400000886000D3075
:1002F600FC00FB30FD00FD0B7E29FC0B7E29000077
:1003060000000714B60A0319B70A3629B40A0319F6
:06031600B50AD0288D2974
:02400E004A2F37
:00000001FF
