:020000001628C0
:0E0006008312031335088A00340882000800B4
:1000140003208A110A128000840AB40A0319B50A5B
:08002400F003031D0A28080087
:10002C003F3083120313A0000630A1005B30A20006
:10003C004F30A3006630A4006D30A5007D30A600C3
:10004C000730A7007F30A8006F30A900AA01AB01D0
:10005C00AC01AD01AE01AF01B001B101B201B30110
:10006C00831686018701831286018701FF30831670
:10007C0088008312880107102A08203E840000089B
:10008C0086001A30FC00F830FD00FD0B4B28FC0BF1
:10009C004B280000071487103208203E840000080B
:1000AC0086001A30FC00F830FD00FD0B5B28FC0BC1
:1000BC005B280000871407112C08203E84000008E0
:1000CC0086001A30FC00F830FD00FD0B6B28FC0B91
:1000DC006B280000071587112E08203E84000008AD
:1000EC0086001A30FC00F830FD00FD0B7B28FC0B61
:1000FC007B2800008715081CB22800303106031D30
:10010C00892800303006031D8E28AA0A0319AB0A71
:10011C0000303106031D942801303006031D992848
:10012C00B20A0319B30A00303106031D9F280230AE
:10013C003006031DA428AC0A0319AD0A00303106A1
:10014C00031DAA2803303006031DAF28AE0A03197D
:10015C00AF0A081CB228AF28881CBA28B00A0319A9
:10016C00B10A881CBA28B7288030F00080303106DC
:10017C007002031DC3283008033C0318C728B001C4
:10018C00B1018030F00080302B067002031DD028A6
:10019C002A08093C0318D428AA01AB018030F000CE
:1001AC00803033067002031DDD283208093C031829
:1001BC00E128B201B3018030F00080302D067002CE
:1001CC00031DEA282C08093C0318EE28AC01AD01EC
:1001DC008030F00080302F067002031DF7282E08A7
:0E01EC00093C0318FB28AE01AF014128FC2896
:02400E004A2F37
:00000001FF
