:020000001628C0
:0E0006008312031321088A00200882000800DC
:1000140003208A110A128000840AA00A0319A10A83
:08002400F003031D0A28080087
:10002C0083120313A201A30183168601FF308700FC
:10003C0083120610871C3328871C332800302306B4
:10004C00031D2A2800302206031D31280130A2008E
:10005C000030A3003328A201A30100302306031DA6
:10006C00392800302206031D492806100330FB00F6
:10007C000830FC007730FD00FD0B4228FC0B4228B9
:10008C00FB0B4228562806140330FB000830FC00FA
:10009C007730FD00FD0B5028FC0B5028FB0B502833
:0400AC002028572889
:02400E004A2F37
:00000001FF
