:02000000AB282B
:10000600710DF80DF90D7408F8027508031C750FCB
:10001600F902F00DF10D0F30FC00710DF80DF90D20
:100026007408701C1C28F8027508031C750FF90269
:100036002128F80775080318750FF907F00DF10D5B
:10004600FC0B102870182D287408F807750803187B
:08005600750FF9070000080016
:0E005E00831203132B088A002A088200080070
:10006C002F208A110A128000840AAA0A0319AB0AEB
:08007C00F003031D3628080003
:10008400831203137408003A031D51287508003ABB
:10009400031D5128FF30F0007F30F100AA2883129D
:1000A4000313FD01F901F801710870040319003408
:1000B40071087506FA00FA1BFD09FB01F51F672894
:1000C400F409F509F40A0319F50AF11F6E28F00979
:1000D400F109F00A0319F10A71087504FA00FA1B10
:1000E400832803207B189628FD1F0034F009F109AA
:1000F400F00A0319F10AF809F909F80A0319F90AC7
:100104000034F51F9228F11B8E287108F90070083D
:10011400F800F101F0017628F101F001F00A003451
:10012400F109F009FB0A7328F80A0319F90A74089B
:100134007802031D762875087902031D7628F901D3
:10014400F801F00A0319F10AF11F76280000FF34C0
:020154000800A1
:100156003F3083120313A0000630A1005B30A200DB
:100166004F30A3006630A4006D30A5007D30A60098
:100176000730A7007F30A8006F30A900AE01AF019D
:10018600B001B101B201B301831686018701831262
:10019600860187010A30F4000030F5002E08F000D1
:1001A6002F08F10042207008B2007108B3000A302F
:1001B600F4000030F5002E08F0002F08F100422070
:1001C6007808F0007908F1007008B0007108B100F5
:1001D600AC01AD0180302D06F00080307002031DA9
:1001E600F6280A302C0203181C293208203E840007
:1001F6000008860007101A30FC00F830FD00FD0BE1
:100206000229FC0B0229000007143008203E840056
:100216000008860087101A30FC00F830FD00FD0B40
:100226001229FC0B122900008714AC0A0319AD0A27
:10023600ED2880302F06F00080307002031D25293E
:1002460063302E02031C2929AE01AF01AE0A031941
:06025600AF0ACD282D299E
:02400E004A2F37
:00000001FF
