:020000001628C0
:0E0006008312031321088A00200882000800DC
:1000140003208A110A128000840AA00A0319A10A83
:08002400F003031D0A28080087
:10002C0083120313A201A3014030A4007930A50070
:10003C002430A6003030A7001930A8001230A900D7
:10004C000230AA007830AB00AC011030AD00FF30AC
:10005C00831687008601FF3083128600071E562800
:10006C002208243E8400000886000630FB00133072
:10007C00FC00AD30FD00FD0B4128FC0B4128FB0BB7
:10008C00412800000000A20A0319A30A003023062D
:10009C00031D52280A302206031D5628A201A30173
:0400AC003428572875
:02400E004A2F37
:00000001FF
