:020000001628C0
:0E0006008312031323088A00220882000800D8
:1000140003208A110A128000840AA20A0319A30A7F
:08002400F003031D0A28080087
:10002C0083120313A001A10183168601FF30870000
:10003C0083120610871C3F28A00A0319A10A00305E
:10004C002106031D2B280030200603193D28061419
:10005C000630FB001330FC00AD30FD00FD0B3428E6
:10006C00FC0B3428FB0B3428000000003E28061043
:08007C0040280610202841284D
:02400E004A2F37
:00000001FF
