:020000001628C0
:0E0006008312031321088A00200882000800DC
:1000140003208A110A128000840AA00A0319A10A83
:08002400F003031D0A28080087
:10002C0083120313A201A301FF30831688008601FB
:10003C0083120610081C3D280330FB000830FC001E
:10004C007730FD00FD0B2828FC0B2828FB0B2828FB
:10005C0000302306031D342800302206031D3B28E4
:10006C000130A2000030A3003D28A201A301003002
:10007C002306031D432800302206031D54280610B6
:10008C0086120330FB000830FC007730FD00FD0BBE
:10009C004D28FC0B4D28FB0B4D28622806148616A8
:1000AC000330FB000830FC007730FD00FD0B5C28B2
:0C00BC00FC0B5C28FB0B5C282028632850
:02400E004A2F37
:00000001FF
