:020000001628C0
:0E0006008312031321088A00200882000800DC
:1000140003208A110A128000840AA00A0319A10A83
:08002400F003031D0A28080087
:10002C008316031386018701831286018701061448
:10003C00861207110230FB000430FC00BA30FD00C0
:10004C00FD0B2628FC0B2628FB0B2628000006108F
:10005C00861607110230FB000430FC00BA30FD009C
:10006C00FD0B3628FC0B3628FB0B3628000006103F
:10007C00861207150230FB000430FC00BA30FD007C
:10008C00FD0B4628FC0B4628FB0B462800001D28C0
:02009C004E28EC
:02400E004A2F37
:00000001FF
