:020000001628C0
:0E0006008312031321088A00200882000800DC
:1000140003208A110A128000840AA00A0319A10A83
:08002400F003031D0A28080087
:10002C00831603138601FF30880083128601081C97
:10003C004028061486120630FB001330FC00AD304D
:10004C00FD00FD0B2728FC0B2728FB0B27280000A5
:10005C000000061086160630FB001330FC00AD3095
:10006C00FD00FD0B3728FC0B3728FB0B3728000055
:0C007C0000004228061086121D284328B0
:02400E004A2F37
:00000001FF
