:020000002728AF
:0E0006008312031321088A00200882000800DC
:1000140083120313F1012208710203181A28F20152
:100024001430720203181828F20A1228F10A0D2853
:020034000800C2
:1000360003208A110A128000840AA00A0319A10A61
:08004600F003031D1B28080054
:10004E008316031387018801803083128800C33022
:10005E0087000A30A2000A2040308800C330870093
:10006E000A30A2000A2020308800C33087000A30F0
:10007E00A2000A2010308800FF3087000A30A2004C
:10008E000A2008308800FF3087000A30A2000A20BC
:10009E0004308800C33087000A30A2000A200230E4
:1000AE008800C33087000A30A2000A200130880081
:0E00BE00C33087000A30A2000A202B286528D4
:02400E004A2F37
:00000001FF
