:020000001628C0
:0E0006008312031321088A00200882000800DC
:1000140003208A110A128000840AA00A0319A10A83
:08002400F003031D0A28080087
:10002C0083120313A201A30183168601FF308800FB
:10003C0083120610081C41280630FB001330FC000C
:10004C00AD30FD00FD0B2828FC0B2828FB0B2828C5
:10005C0000000000081C412800302306031D38282E
:10006C0000302206031D3F280130A2000030A300FF
:10007C004128A201A30100302306031D47280030AC
:10008C002206031D4B2806104C28061420284D2848
:02400E004A2F37
:00000001FF
