:020000001628C0
:0E0006008312031321088A00200882000800DC
:1000140003208A110A128000840AA00A0319A10A83
:08002400F003031D0A28080087
:10002C0083120313A201A3014030A4007930A50070
:10003C002430A6003030A7001930A8001230A900D7
:10004C000230AA007830AB00AC011030AD00831642
:10005C008601FF308700FF308800FF308312860056
:10006C00871E56282208243E84000008860005308E
:10007C00FB000F30FC00F130FD00FD0B4328FC0BA6
:10008C004328FB0B4328A20A0319A30A00302306BA
:10009C00031D52280A302206031D5628A201A30173
:1000AC00881C84288030F000803023067002031DE9
:1000BC0061282208003C031C67280A30A20000308B
:1000CC00A30001302202F0000030031C013E230289
:1000DC00F1007008243E8400000886000530FB0007
:1000EC000F30FC00F130FD00FD0B7A28FC0B7A2858
:1000FC00FB0B7A280130A202031CA30336288528A7
:02400E004A2F37
:00000001FF
